{
  "address": "0x08A107dd0EfC7795364235e83Fbfb97c355d9642",
  "abi": [
    {
      "inputs": [
        {
          "internalType": "address",
          "name": "exampleExternalContractAddress",
          "type": "address"
        }
      ],
      "stateMutability": "nonpayable",
      "type": "constructor"
    },
    {
      "anonymous": false,
      "inputs": [
        {
          "indexed": false,
          "internalType": "address",
          "name": "executer",
          "type": "address"
        },
        {
          "indexed": false,
          "internalType": "uint256",
          "name": "totalStaked",
          "type": "uint256"
        }
      ],
      "name": "Execute",
      "type": "event"
    },
    {
      "anonymous": false,
      "inputs": [
        {
          "indexed": false,
          "internalType": "address",
          "name": "staker",
          "type": "address"
        },
        {
          "indexed": false,
          "internalType": "uint256",
          "name": "amount",
          "type": "uint256"
        }
      ],
      "name": "Stake",
      "type": "event"
    },
    {
      "anonymous": false,
      "inputs": [
        {
          "indexed": false,
          "internalType": "address",
          "name": "withdrawer",
          "type": "address"
        },
        {
          "indexed": false,
          "internalType": "uint256",
          "name": "amount",
          "type": "uint256"
        }
      ],
      "name": "Withdraw",
      "type": "event"
    },
    {
      "inputs": [
        {
          "internalType": "address",
          "name": "",
          "type": "address"
        }
      ],
      "name": "balances",
      "outputs": [
        {
          "internalType": "uint256",
          "name": "",
          "type": "uint256"
        }
      ],
      "stateMutability": "view",
      "type": "function"
    },
    {
      "inputs": [],
      "name": "deadline",
      "outputs": [
        {
          "internalType": "uint256",
          "name": "",
          "type": "uint256"
        }
      ],
      "stateMutability": "view",
      "type": "function"
    },
    {
      "inputs": [],
      "name": "exampleExternalContract",
      "outputs": [
        {
          "internalType": "contract ExampleExternalContract",
          "name": "",
          "type": "address"
        }
      ],
      "stateMutability": "view",
      "type": "function"
    },
    {
      "inputs": [],
      "name": "execute",
      "outputs": [],
      "stateMutability": "nonpayable",
      "type": "function"
    },
    {
      "inputs": [],
      "name": "openForWithdraw",
      "outputs": [
        {
          "internalType": "bool",
          "name": "",
          "type": "bool"
        }
      ],
      "stateMutability": "view",
      "type": "function"
    },
    {
      "inputs": [],
      "name": "stake",
      "outputs": [],
      "stateMutability": "payable",
      "type": "function"
    },
    {
      "inputs": [],
      "name": "threshold",
      "outputs": [
        {
          "internalType": "uint256",
          "name": "",
          "type": "uint256"
        }
      ],
      "stateMutability": "view",
      "type": "function"
    },
    {
      "inputs": [],
      "name": "timeLeft",
      "outputs": [
        {
          "internalType": "uint256",
          "name": "",
          "type": "uint256"
        }
      ],
      "stateMutability": "view",
      "type": "function"
    },
    {
      "inputs": [],
      "name": "withdraw",
      "outputs": [],
      "stateMutability": "nonpayable",
      "type": "function"
    },
    {
      "stateMutability": "payable",
      "type": "receive"
    }
  ],
  "transactionHash": "0xd21e5e84efaa52fea13e1f32e21febf49508c20822dd3aa6bdfbab4aa3eadf65",
  "args": [
    "0x7830C58d417Eb9455ee6d0293feAcABa2a323a9C"
  ],
  "numDeployments": 1,
  "solcInputHash": "10d226fc00012b83fb0602f82eb3be0b",
  "bytecode": "0x60806040526000805460ff60a01b1916600160a01b17905561002242601e6100a3565b60015534801561003157600080fd5b506040516107ea3803806107ea83398101604081905261005091610075565b600080546001600160a01b0319166001600160a01b03929092169190911790556100c7565b600060208284031215610086578081fd5b81516001600160a01b038116811461009c578182fd5b9392505050565b600082198211156100c257634e487b7160e01b81526011600452602481fd5b500190565b610714806100d66000396000f3fe60806040526004361061008a5760003560e01c80633ccfd60b116100595780633ccfd60b1461011157806342cde4e81461012657806361461954146101425780639876a643146101575780639f75f2271461018857600080fd5b80631300a6d11461009e57806327e235e3146100c657806329dcb0cf146100f35780633a4b66f11461010957600080fd5b36610099576100976101c0565b005b600080fd5b3480156100aa57600080fd5b506100b36102b9565b6040519081526020015b60405180910390f35b3480156100d257600080fd5b506100b36100e136600461066b565b60026020526000908152604090205481565b3480156100ff57600080fd5b506100b360015481565b6100976101c0565b34801561011d57600080fd5b506100976102de565b34801561013257600080fd5b506100b3670de0b6b3a764000081565b34801561014e57600080fd5b5061009761054c565b34801561016357600080fd5b5060005461017890600160a01b900460ff1681565b60405190151581526020016100bd565b34801561019457600080fd5b506000546101a8906001600160a01b031681565b6040516001600160a01b0390911681526020016100bd565b600034116102095760405162461bcd60e51b8152602060048201526011602482015270496e737566696369656e742046756e647360781b60448201526064015b60405180910390fd5b600154421061025a5760405162461bcd60e51b815260206004820152601760248201527f5468652074696d6520746f207374616b6520676f6e65210000000000000000006044820152606401610200565b3360009081526002602052604081208054349290610279908490610699565b9091555050604080513381523460208201527febedb8b3c678666e7f36970bc8f57abf6d8fa2e828c0da91ea5b75bf68ed101a91015b60405180910390a1565b60006001544210156102d857426001546102d391906106b1565b905090565b50600090565b600054600160a01b900460ff16151560011461033c5760405162461bcd60e51b815260206004820152601760248201527f4974277320636c6f73656420746f2057697468647261770000000000000000006044820152606401610200565b60015442116103a25760405162461bcd60e51b815260206004820152602c60248201527f5468652074696d6520666f722077697468647261772c204e4f5420697320746860448201526b6973206d6f6d656e7421212160a01b6064820152608401610200565b670de0b6b3a764000047106103f95760405162461bcd60e51b815260206004820152601960248201527f546865206d6f6e65792069736e277420636f6d706c65746564000000000000006044820152606401610200565b336000908152600260205260409020546104615760405162461bcd60e51b815260206004820152602360248201527f596f7520646f6e27742068617665206d6f6e657920746f20776974686472617760448201526221212160e81b6064820152608401610200565b33600081815260026020526040808220805490839055905190929083908381818185875af1925050503d80600081146104b6576040519150601f19603f3d011682016040523d82523d6000602084013e6104bb565b606091505b50509050806105005760405162461bcd60e51b81526020600482015260116024820152702a3930b739b0b1ba34b7b71022b93937b960791b6044820152606401610200565b33600081815260026020908152604091829020548251938452908301527f884edad9ce6fa2440d8a54cc123490eb96d2768479d49ff9c7366125a9424364910160405180910390a15050565b60015442116105b15760405162461bcd60e51b815260206004820152602b60248201527f54686520657865637574696f6e2074696d6520686173206e6f7420796574206260448201526a19595b881c995858da195960aa1b6064820152608401610200565b670de0b6b3a764000047106106695760008054906101000a90046001600160a01b03166001600160a01b031663522e1177476040518263ffffffff1660e01b81526004016000604051808303818588803b15801561060e57600080fd5b505af1158015610622573d6000803e3d6000fd5b50506000805460ff60a01b191690555050604080513381524760208201527f892cd8f5b436bd5fb7dac1f11aafb73345d892ba3e9fe09cd94d95ba84928e739250016102af565b565b60006020828403121561067c578081fd5b81356001600160a01b0381168114610692578182fd5b9392505050565b600082198211156106ac576106ac6106c8565b500190565b6000828210156106c3576106c36106c8565b500390565b634e487b7160e01b600052601160045260246000fdfea26469706673582212202705d5f508910d0c02f5d3b97d779a46775760c575506ec99f9bb9e5488c24e164736f6c63430008040033",
  "devdoc": {
    "kind": "dev",
    "methods": {},
    "version": 1
  },
  "userdoc": {
    "kind": "user",
    "methods": {},
    "version": 1
  },
  "storageLayout": {
    "storage": [
      {
        "astId": 19,
        "contract": "contracts/Staker.sol:Staker",
        "label": "exampleExternalContract",
        "offset": 0,
        "slot": "0",
        "type": "t_contract(ExampleExternalContract)12"
      },
      {
        "astId": 22,
        "contract": "contracts/Staker.sol:Staker",
        "label": "openForWithdraw",
        "offset": 20,
        "slot": "0",
        "type": "t_bool"
      },
      {
        "astId": 31,
        "contract": "contracts/Staker.sol:Staker",
        "label": "deadline",
        "offset": 0,
        "slot": "1",
        "type": "t_uint256"
      },
      {
        "astId": 35,
        "contract": "contracts/Staker.sol:Staker",
        "label": "balances",
        "offset": 0,
        "slot": "2",
        "type": "t_mapping(t_address,t_uint256)"
      }
    ],
    "types": {
      "t_address": {
        "encoding": "inplace",
        "label": "address",
        "numberOfBytes": "20"
      },
      "t_bool": {
        "encoding": "inplace",
        "label": "bool",
        "numberOfBytes": "1"
      },
      "t_contract(ExampleExternalContract)12": {
        "encoding": "inplace",
        "label": "contract ExampleExternalContract",
        "numberOfBytes": "20"
      },
      "t_mapping(t_address,t_uint256)": {
        "encoding": "mapping",
        "key": "t_address",
        "label": "mapping(address => uint256)",
        "numberOfBytes": "32",
        "value": "t_uint256"
      },
      "t_uint256": {
        "encoding": "inplace",
        "label": "uint256",
        "numberOfBytes": "32"
      }
    }
  }
}